{
  "contractName": "ZombieAttack",
  "abi": [
    {
      "constant": false,
      "inputs": [
        {
          "name": "_zombieId",
          "type": "uint256"
        }
      ],
      "name": "levelUp",
      "outputs": [],
      "payable": true,
      "stateMutability": "payable",
      "type": "function"
    },
    {
      "constant": false,
      "inputs": [
        {
          "name": "_zombieId",
          "type": "uint256"
        },
        {
          "name": "_kittyId",
          "type": "uint256"
        }
      ],
      "name": "feedOnKitty",
      "outputs": [],
      "payable": false,
      "stateMutability": "nonpayable",
      "type": "function"
    },
    {
      "constant": true,
      "inputs": [
        {
          "name": "",
          "type": "uint256"
        }
      ],
      "name": "zombies",
      "outputs": [
        {
          "name": "name",
          "type": "string"
        },
        {
          "name": "dna",
          "type": "uint256"
        },
        {
          "name": "level",
          "type": "uint32"
        },
        {
          "name": "readyTime",
          "type": "uint32"
        },
        {
          "name": "winCount",
          "type": "uint16"
        },
        {
          "name": "lossCount",
          "type": "uint16"
        }
      ],
      "payable": false,
      "stateMutability": "view",
      "type": "function"
    },
    {
      "constant": false,
      "inputs": [],
      "name": "withdraw",
      "outputs": [],
      "payable": false,
      "stateMutability": "nonpayable",
      "type": "function"
    },
    {
      "constant": true,
      "inputs": [
        {
          "name": "_owner",
          "type": "address"
        }
      ],
      "name": "getZombiesByOwner",
      "outputs": [
        {
          "name": "",
          "type": "uint256[]"
        }
      ],
      "payable": false,
      "stateMutability": "view",
      "type": "function"
    },
    {
      "constant": true,
      "inputs": [
        {
          "name": "",
          "type": "uint256"
        }
      ],
      "name": "zombieToOwner",
      "outputs": [
        {
          "name": "",
          "type": "address"
        }
      ],
      "payable": false,
      "stateMutability": "view",
      "type": "function"
    },
    {
      "constant": false,
      "inputs": [
        {
          "name": "_address",
          "type": "address"
        }
      ],
      "name": "setKittyContractAddress",
      "outputs": [],
      "payable": false,
      "stateMutability": "nonpayable",
      "type": "function"
    },
    {
      "constant": false,
      "inputs": [
        {
          "name": "_zombieId",
          "type": "uint256"
        },
        {
          "name": "_newDna",
          "type": "uint256"
        }
      ],
      "name": "changeDna",
      "outputs": [],
      "payable": false,
      "stateMutability": "nonpayable",
      "type": "function"
    },
    {
      "constant": false,
      "inputs": [
        {
          "name": "_name",
          "type": "string"
        }
      ],
      "name": "createRandomZombie",
      "outputs": [],
      "payable": false,
      "stateMutability": "nonpayable",
      "type": "function"
    },
    {
      "constant": true,
      "inputs": [],
      "name": "owner",
      "outputs": [
        {
          "name": "",
          "type": "address"
        }
      ],
      "payable": false,
      "stateMutability": "view",
      "type": "function"
    },
    {
      "constant": false,
      "inputs": [
        {
          "name": "_zombieId",
          "type": "uint256"
        },
        {
          "name": "_newName",
          "type": "string"
        }
      ],
      "name": "changeName",
      "outputs": [],
      "payable": false,
      "stateMutability": "nonpayable",
      "type": "function"
    },
    {
      "constant": false,
      "inputs": [
        {
          "name": "_fee",
          "type": "uint256"
        }
      ],
      "name": "setLevelUpFee",
      "outputs": [],
      "payable": false,
      "stateMutability": "nonpayable",
      "type": "function"
    },
    {
      "constant": false,
      "inputs": [
        {
          "name": "newOwner",
          "type": "address"
        }
      ],
      "name": "transferOwnership",
      "outputs": [],
      "payable": false,
      "stateMutability": "nonpayable",
      "type": "function"
    },
    {
      "anonymous": false,
      "inputs": [
        {
          "indexed": false,
          "name": "zombieId",
          "type": "uint256"
        },
        {
          "indexed": false,
          "name": "name",
          "type": "string"
        },
        {
          "indexed": false,
          "name": "dna",
          "type": "uint256"
        }
      ],
      "name": "NewZombie",
      "type": "event"
    },
    {
      "anonymous": false,
      "inputs": [
        {
          "indexed": true,
          "name": "previousOwner",
          "type": "address"
        },
        {
          "indexed": true,
          "name": "newOwner",
          "type": "address"
        }
      ],
      "name": "OwnershipTransferred",
      "type": "event"
    },
    {
      "constant": false,
      "inputs": [],
      "name": "constructor",
      "outputs": [],
      "payable": false,
      "stateMutability": "nonpayable",
      "type": "function"
    },
    {
      "constant": false,
      "inputs": [
        {
          "name": "_zombieId",
          "type": "uint256"
        },
        {
          "name": "_targetId",
          "type": "uint256"
        }
      ],
      "name": "attack",
      "outputs": [],
      "payable": false,
      "stateMutability": "nonpayable",
      "type": "function"
    }
  ],
  "bytecode": "0x60806040526010600155600154600a0a6002556201518060035566038d7ea4c6800060085560006009556046600a5534801561003a57600080fd5b5061194d8061004a6000396000f3006080604052600436106100db576000357c0100000000000000000000000000000000000000000000000000000000900463ffffffff1680630ce90ec2146100e057806317a7f4cc146101005780632052465e146101375780633ccfd60b146102285780634412e1041461023f578063528b7b8f146102d75780635f4623f1146103445780635faf2880146103875780637bff0a01146103be5780638da5cb5b1461042757806390fa17bb1461047e578063c39cbef114610495578063ccf670f8146104da578063e1fa763814610507578063f2fde38b1461053e575b600080fd5b6100fe60048036038101908080359060200190929190505050610581565b005b34801561010c57600080fd5b5061013560048036038101908080359060200190929190803590602001909291905050506105ed565b005b34801561014357600080fd5b5061016260048036038101908080359060200190929190505050610796565b60405180806020018781526020018663ffffffff1663ffffffff1681526020018563ffffffff1663ffffffff1681526020018461ffff1661ffff1681526020018361ffff1661ffff168152602001828103825288818151815260200191508051906020019080838360005b838110156101e85780820151818401526020810190506101cd565b50505050905090810190601f1680156102155780820380516001836020036101000a031916815260200191505b5097505050505050505060405180910390f35b34801561023457600080fd5b5061023d6108b5565b005b34801561024b57600080fd5b50610280600480360381019080803573ffffffffffffffffffffffffffffffffffffffff169060200190929190505050610991565b6040518080602001828103825283818151815260200191508051906020019060200280838360005b838110156102c35780820151818401526020810190506102a8565b505050509050019250505060405180910390f35b3480156102e357600080fd5b5061030260048036038101908080359060200190929190505050610ac3565b604051808273ffffffffffffffffffffffffffffffffffffffff1673ffffffffffffffffffffffffffffffffffffffff16815260200191505060405180910390f35b34801561035057600080fd5b50610385600480360381019080803573ffffffffffffffffffffffffffffffffffffffff169060200190929190505050610af6565b005b34801561039357600080fd5b506103bc6004803603810190808035906020019092919080359060200190929190505050610b95565b005b3480156103ca57600080fd5b50610425600480360381019080803590602001908201803590602001908080601f0160208091040260200160405190810160405280939291908181526020018383808284378201915050505050509192919290505050610c77565b005b34801561043357600080fd5b5061043c610cf0565b604051808273ffffffffffffffffffffffffffffffffffffffff1673ffffffffffffffffffffffffffffffffffffffff16815260200191505060405180910390f35b34801561048a57600080fd5b50610493610d15565b005b3480156104a157600080fd5b506104d860048036038101908080359060200190929190803590602001908201803590602001919091929391929390505050610d57565b005b3480156104e657600080fd5b5061050560048036038101908080359060200190929190505050610e45565b005b34801561051357600080fd5b5061053c6004803603810190808035906020019092919080359060200190929190505050610eaa565b005b34801561054a57600080fd5b5061057f600480360381019080803573ffffffffffffffffffffffffffffffffffffffff1690602001909291905050506110e6565b005b6008543414151561059157600080fd5b6004818154811015156105a057fe5b9060005260206000209060030201600201600081819054906101000a900463ffffffff168092919060010191906101000a81548163ffffffff021916908363ffffffff1602179055505050565b6000600760009054906101000a900473ffffffffffffffffffffffffffffffffffffffff1673ffffffffffffffffffffffffffffffffffffffff1663e98b7f4d836040518263ffffffff167c01000000000000000000000000000000000000000000000000000000000281526004018082815260200191505061014060405180830381600087803b15801561068157600080fd5b505af1158015610695573d6000803e3d6000fd5b505050506040513d6101408110156106ac57600080fd5b81019080805190602001909291908051906020019092919080519060200190929190805190602001909291908051906020019092919080519060200190929190805190602001909291908051906020019092919080519060200190929190805190602001909291905050509091929394959697985090919293949596975090919293949596509091929394955090919293945090919293509091925090915090508091505061079183826040805190810160405280600581526020017f6b6974747900000000000000000000000000000000000000000000000000000081525061123b565b505050565b6004818154811015156107a557fe5b9060005260206000209060030201600091509050806000018054600181600116156101000203166002900480601f0160208091040260200160405190810160405280929190818152602001828054600181600116156101000203166002900480156108515780601f1061082657610100808354040283529160200191610851565b820191906000526020600020905b81548152906001019060200180831161083457829003601f168201915b5050505050908060010154908060020160009054906101000a900463ffffffff16908060020160049054906101000a900463ffffffff16908060020160089054906101000a900461ffff169080600201600a9054906101000a900461ffff16905086565b6000809054906101000a900473ffffffffffffffffffffffffffffffffffffffff1673ffffffffffffffffffffffffffffffffffffffff163373ffffffffffffffffffffffffffffffffffffffff1614151561091057600080fd5b6000809054906101000a900473ffffffffffffffffffffffffffffffffffffffff1673ffffffffffffffffffffffffffffffffffffffff166108fc3073ffffffffffffffffffffffffffffffffffffffff16319081150290604051600060405180830381858888f1935050505015801561098e573d6000803e3d6000fd5b50565b606080600080600660008673ffffffffffffffffffffffffffffffffffffffff1673ffffffffffffffffffffffffffffffffffffffff16815260200190815260200160002054604051908082528060200260200182016040528015610a055781602001602082028038833980820191505090505b50925060009150600090505b600480549050811015610ab8578473ffffffffffffffffffffffffffffffffffffffff166005600083815260200190815260200160002060009054906101000a900473ffffffffffffffffffffffffffffffffffffffff1673ffffffffffffffffffffffffffffffffffffffff161415610aab57808383815181101515610a9457fe5b906020019060200201818152505081806001019250505b8080600101915050610a11565b829350505050919050565b60056020528060005260406000206000915054906101000a900473ffffffffffffffffffffffffffffffffffffffff1681565b6000809054906101000a900473ffffffffffffffffffffffffffffffffffffffff1673ffffffffffffffffffffffffffffffffffffffff163373ffffffffffffffffffffffffffffffffffffffff16141515610b5157600080fd5b80600760006101000a81548173ffffffffffffffffffffffffffffffffffffffff021916908373ffffffffffffffffffffffffffffffffffffffff16021790555050565b60148281600482815481101515610ba857fe5b906000526020600020906003020160020160009054906101000a900463ffffffff1663ffffffff1610151515610bdd57600080fd5b836005600082815260200190815260200160002060009054906101000a900473ffffffffffffffffffffffffffffffffffffffff1673ffffffffffffffffffffffffffffffffffffffff163373ffffffffffffffffffffffffffffffffffffffff16141515610c4b57600080fd5b83600486815481101515610c5b57fe5b9060005260206000209060030201600101819055505050505050565b600080600660003373ffffffffffffffffffffffffffffffffffffffff1673ffffffffffffffffffffffffffffffffffffffff16815260200190815260200160002054141515610cc657600080fd5b610ccf82611410565b9050606481811515610cdd57fe5b0681039050610cec8282611492565b5050565b6000809054906101000a900473ffffffffffffffffffffffffffffffffffffffff1681565b336000806101000a81548173ffffffffffffffffffffffffffffffffffffffff021916908373ffffffffffffffffffffffffffffffffffffffff160217905550565b60028381600482815481101515610d6a57fe5b906000526020600020906003020160020160009054906101000a900463ffffffff1663ffffffff1610151515610d9f57600080fd5b846005600082815260200190815260200160002060009054906101000a900473ffffffffffffffffffffffffffffffffffffffff1673ffffffffffffffffffffffffffffffffffffffff163373ffffffffffffffffffffffffffffffffffffffff16141515610e0d57600080fd5b8484600488815481101515610e1e57fe5b90600052602060002090600302016000019190610e3c9291906117fc565b50505050505050565b6000809054906101000a900473ffffffffffffffffffffffffffffffffffffffff1673ffffffffffffffffffffffffffffffffffffffff163373ffffffffffffffffffffffffffffffffffffffff16141515610ea057600080fd5b8060088190555050565b6000806000846005600082815260200190815260200160002060009054906101000a900473ffffffffffffffffffffffffffffffffffffffff1673ffffffffffffffffffffffffffffffffffffffff163373ffffffffffffffffffffffffffffffffffffffff16141515610f1d57600080fd5b600486815481101515610f2c57fe5b90600052602060002090600302019350600485815481101515610f4b57fe5b90600052602060002090600302019250610f65606461171e565b9150600a54821115156110665783600201600881819054906101000a900461ffff168092919060010191906101000a81548161ffff021916908361ffff1602179055505083600201600081819054906101000a900463ffffffff168092919060010191906101000a81548163ffffffff021916908363ffffffff1602179055505082600201600a81819054906101000a900461ffff168092919060010191906101000a81548161ffff021916908361ffff160217905550506110618684600101546040805190810160405280600681526020017f7a6f6d626965000000000000000000000000000000000000000000000000000081525061123b565b6110de565b83600201600a81819054906101000a900461ffff168092919060010191906101000a81548161ffff021916908361ffff1602179055505082600201600881819054906101000a900461ffff168092919060010191906101000a81548161ffff021916908361ffff160217905550506110dd846117ab565b5b505050505050565b6000809054906101000a900473ffffffffffffffffffffffffffffffffffffffff1673ffffffffffffffffffffffffffffffffffffffff163373ffffffffffffffffffffffffffffffffffffffff1614151561114157600080fd5b600073ffffffffffffffffffffffffffffffffffffffff168173ffffffffffffffffffffffffffffffffffffffff161415151561117d57600080fd5b8073ffffffffffffffffffffffffffffffffffffffff166000809054906101000a900473ffffffffffffffffffffffffffffffffffffffff1673ffffffffffffffffffffffffffffffffffffffff167f8be0079c531659141344cd1fd0a4f28419497f9722a3daafe3b4186f6b6457e060405160405180910390a3806000806101000a81548173ffffffffffffffffffffffffffffffffffffffff021916908373ffffffffffffffffffffffffffffffffffffffff16021790555050565b600080846005600082815260200190815260200160002060009054906101000a900473ffffffffffffffffffffffffffffffffffffffff1673ffffffffffffffffffffffffffffffffffffffff163373ffffffffffffffffffffffffffffffffffffffff161415156112ac57600080fd5b6004868154811015156112bb57fe5b906000526020600020906003020192506112d4836117d5565b15156112df57600080fd5b600254858115156112ec57fe5b06945060028584600101540181151561130157fe5b04915060405180807f6b697474790000000000000000000000000000000000000000000000000000008152506005019050604051809103902060001916846040518082805190602001908083835b602083101515611374578051825260208201915060208101905060208303925061134f565b6001836020036101000a03801982511681845116808217855250505050505090500191505060405180910390206000191614156113c05760636064838115156113b957fe5b0683030191505b6113ff6040805190810160405280600681526020017f4e6f4e616d65000000000000000000000000000000000000000000000000000081525083611492565b611408836117ab565b505050505050565b600080826040518082805190602001908083835b6020831015156114495780518252602082019150602081019050602083039250611424565b6001836020036101000a03801982511681845116808217855250505050505090500191505060405180910390206001900490506002548181151561148957fe5b06915050919050565b60006001600460c060405190810160405280868152602001858152602001600163ffffffff168152602001600354420163ffffffff168152602001600061ffff168152602001600061ffff1681525090806001815401808255809150509060018203906000526020600020906003020160009091929091909150600082015181600001908051906020019061152892919061187c565b506020820151816001015560408201518160020160006101000a81548163ffffffff021916908363ffffffff16021790555060608201518160020160046101000a81548163ffffffff021916908363ffffffff16021790555060808201518160020160086101000a81548161ffff021916908361ffff16021790555060a082015181600201600a6101000a81548161ffff021916908361ffff1602179055505050039050336005600083815260200190815260200160002060006101000a81548173ffffffffffffffffffffffffffffffffffffffff021916908373ffffffffffffffffffffffffffffffffffffffff160217905550600660003373ffffffffffffffffffffffffffffffffffffffff1673ffffffffffffffffffffffffffffffffffffffff168152602001908152602001600020600081548092919060010191905055507f88f026aacbbecc90c18411df4b1185fd8d9be2470f1962f192bf84a27d0704b78184846040518084815260200180602001838152602001828103825284818151815260200191508051906020019080838360005b838110156116dd5780820151818401526020810190506116c2565b50505050905090810190601f16801561170a5780820380516001836020036101000a031916815260200191505b5094505050505060405180910390a1505050565b6000600960008154809291906001019190505550814233600954604051808481526020018373ffffffffffffffffffffffffffffffffffffffff1673ffffffffffffffffffffffffffffffffffffffff166c0100000000000000000000000002815260140182815260200193505050506040518091039020600190048115156117a357fe5b069050919050565b60035442018160020160046101000a81548163ffffffff021916908363ffffffff16021790555050565b6000428260020160049054906101000a900463ffffffff1663ffffffff1611159050919050565b828054600181600116156101000203166002900490600052602060002090601f016020900481019282601f1061183d57803560ff191683800117855561186b565b8280016001018555821561186b579182015b8281111561186a57823582559160200191906001019061184f565b5b50905061187891906118fc565b5090565b828054600181600116156101000203166002900490600052602060002090601f016020900481019282601f106118bd57805160ff19168380011785556118eb565b828001600101855582156118eb579182015b828111156118ea5782518255916020019190600101906118cf565b5b5090506118f891906118fc565b5090565b61191e91905b8082111561191a576000816000905550600101611902565b5090565b905600a165627a7a72305820ba3105c6ac6df3a1254d9dcc3225a6e02405c00a76e890f8546105bb7f8265e50029",
  "source": "// SPDX-License-Identifier: MIT\npragma solidity >=0.4.22;\n\nimport \"./zombieHelper.sol\";\n\ncontract ZombieAttack is ZombieHelper {\n    uint randNonce = 0;\n    uint attackVictoryProbability = 70;\n\n    function randMod(uint _modulus) internal returns (uint) {\n        randNonce++;\n        return uint(keccak256(now, msg.sender, randNonce)) % _modulus;\n    }\n\n    function attack(uint _zombieId, uint _targetId) external onlyOwnerOf(_zombieId) {\n        Zombie storage myZombie = zombies[_zombieId];\n        Zombie storage enemyZombie = zombies[_targetId];\n        uint rand = randMod(100);\n        if (rand <= attackVictoryProbability) {\n            myZombie.winCount++;\n            myZombie.level++;\n            enemyZombie.lossCount++;\n            feedAndMultiply(_zombieId, enemyZombie.dna, \"zombie\");\n        } else {\n            myZombie.lossCount++;\n            enemyZombie.winCount++;\n            _triggerCooldown(myZombie);\n        }\n    }\n}\n",
  "sourcePath": "/home/artem/projects/solidity/cryptozombies/contracts/zombieAttack.sol",
  "compiler": {
    "name": "solc",
    "version": "0.4.22+commit.4cb486ee.Emscripten.clang"
  },
  "schemaVersion": "3.4.4",
  "updatedAt": "2021-12-28T07:26:31.754Z",
  "devdoc": {
    "methods": {
      "constructor()": {
        "details": "The Ownable constructor sets the original `owner` of the contract to the sender account."
      },
      "transferOwnership(address)": {
        "details": "Allows the current owner to transfer control of the contract to a newOwner.",
        "params": {
          "newOwner": "The address to transfer ownership to."
        }
      }
    }
  },
  "userdoc": {
    "methods": {}
  }
}