{
  "contractName": "ZombieFeeding",
  "abi": [
    {
      "constant": true,
      "inputs": [
        {
          "name": "",
          "type": "uint256"
        }
      ],
      "name": "zombies",
      "outputs": [
        {
          "name": "name",
          "type": "string"
        },
        {
          "name": "dna",
          "type": "uint256"
        },
        {
          "name": "level",
          "type": "uint32"
        },
        {
          "name": "readyTime",
          "type": "uint32"
        },
        {
          "name": "winCount",
          "type": "uint16"
        },
        {
          "name": "lossCount",
          "type": "uint16"
        }
      ],
      "payable": false,
      "stateMutability": "view",
      "type": "function"
    },
    {
      "constant": true,
      "inputs": [
        {
          "name": "",
          "type": "uint256"
        }
      ],
      "name": "zombieToOwner",
      "outputs": [
        {
          "name": "",
          "type": "address"
        }
      ],
      "payable": false,
      "stateMutability": "view",
      "type": "function"
    },
    {
      "constant": false,
      "inputs": [
        {
          "name": "_name",
          "type": "string"
        }
      ],
      "name": "createRandomZombie",
      "outputs": [],
      "payable": false,
      "stateMutability": "nonpayable",
      "type": "function"
    },
    {
      "constant": true,
      "inputs": [],
      "name": "owner",
      "outputs": [
        {
          "name": "",
          "type": "address"
        }
      ],
      "payable": false,
      "stateMutability": "view",
      "type": "function"
    },
    {
      "constant": false,
      "inputs": [
        {
          "name": "newOwner",
          "type": "address"
        }
      ],
      "name": "transferOwnership",
      "outputs": [],
      "payable": false,
      "stateMutability": "nonpayable",
      "type": "function"
    },
    {
      "anonymous": false,
      "inputs": [
        {
          "indexed": false,
          "name": "zombieId",
          "type": "uint256"
        },
        {
          "indexed": false,
          "name": "name",
          "type": "string"
        },
        {
          "indexed": false,
          "name": "dna",
          "type": "uint256"
        }
      ],
      "name": "NewZombie",
      "type": "event"
    },
    {
      "anonymous": false,
      "inputs": [
        {
          "indexed": true,
          "name": "previousOwner",
          "type": "address"
        },
        {
          "indexed": true,
          "name": "newOwner",
          "type": "address"
        }
      ],
      "name": "OwnershipTransferred",
      "type": "event"
    },
    {
      "constant": false,
      "inputs": [
        {
          "name": "_address",
          "type": "address"
        }
      ],
      "name": "setKittyContractAddress",
      "outputs": [],
      "payable": false,
      "stateMutability": "nonpayable",
      "type": "function"
    },
    {
      "constant": false,
      "inputs": [
        {
          "name": "_zombieId",
          "type": "uint256"
        },
        {
          "name": "_kittyId",
          "type": "uint256"
        }
      ],
      "name": "feedOnKitty",
      "outputs": [],
      "payable": false,
      "stateMutability": "nonpayable",
      "type": "function"
    },
    {
      "constant": false,
      "inputs": [],
      "name": "constructor",
      "outputs": [],
      "payable": false,
      "stateMutability": "nonpayable",
      "type": "function"
    }
  ],
  "bytecode": "0x60806040526010600155600154600a0a6002556201518060035534801561002557600080fd5b50610f59806100356000396000f30060806040526004361061008e576000357c0100000000000000000000000000000000000000000000000000000000900463ffffffff16806317a7f4cc146100935780632052465e146100ca578063528b7b8f146101bb5780635f4623f1146102285780637bff0a011461026b5780638da5cb5b146102d457806390fa17bb1461032b578063f2fde38b14610342575b600080fd5b34801561009f57600080fd5b506100c86004803603810190808035906020019092919080359060200190929190505050610385565b005b3480156100d657600080fd5b506100f56004803603810190808035906020019092919050505061052e565b60405180806020018781526020018663ffffffff1663ffffffff1681526020018563ffffffff1663ffffffff1681526020018461ffff1661ffff1681526020018361ffff1661ffff168152602001828103825288818151815260200191508051906020019080838360005b8381101561017b578082015181840152602081019050610160565b50505050905090810190601f1680156101a85780820380516001836020036101000a031916815260200191505b5097505050505050505060405180910390f35b3480156101c757600080fd5b506101e66004803603810190808035906020019092919050505061064d565b604051808273ffffffffffffffffffffffffffffffffffffffff1673ffffffffffffffffffffffffffffffffffffffff16815260200191505060405180910390f35b34801561023457600080fd5b50610269600480360381019080803573ffffffffffffffffffffffffffffffffffffffff169060200190929190505050610680565b005b34801561027757600080fd5b506102d2600480360381019080803590602001908201803590602001908080601f016020809104026020016040519081016040528093929190818152602001838380828437820191505050505050919291929050505061071f565b005b3480156102e057600080fd5b506102e9610798565b604051808273ffffffffffffffffffffffffffffffffffffffff1673ffffffffffffffffffffffffffffffffffffffff16815260200191505060405180910390f35b34801561033757600080fd5b506103406107bd565b005b34801561034e57600080fd5b50610383600480360381019080803573ffffffffffffffffffffffffffffffffffffffff1690602001909291905050506107ff565b005b6000600760009054906101000a900473ffffffffffffffffffffffffffffffffffffffff1673ffffffffffffffffffffffffffffffffffffffff1663e98b7f4d836040518263ffffffff167c01000000000000000000000000000000000000000000000000000000000281526004018082815260200191505061014060405180830381600087803b15801561041957600080fd5b505af115801561042d573d6000803e3d6000fd5b505050506040513d61014081101561044457600080fd5b81019080805190602001909291908051906020019092919080519060200190929190805190602001909291908051906020019092919080519060200190929190805190602001909291908051906020019092919080519060200190929190805190602001909291905050509091929394959697985090919293949596975090919293949596509091929394955090919293945090919293509091925090915090508091505061052983826040805190810160405280600581526020017f6b69747479000000000000000000000000000000000000000000000000000000815250610954565b505050565b60048181548110151561053d57fe5b9060005260206000209060030201600091509050806000018054600181600116156101000203166002900480601f0160208091040260200160405190810160405280929190818152602001828054600181600116156101000203166002900480156105e95780601f106105be576101008083540402835291602001916105e9565b820191906000526020600020905b8154815290600101906020018083116105cc57829003601f168201915b5050505050908060010154908060020160009054906101000a900463ffffffff16908060020160049054906101000a900463ffffffff16908060020160089054906101000a900461ffff169080600201600a9054906101000a900461ffff16905086565b60056020528060005260406000206000915054906101000a900473ffffffffffffffffffffffffffffffffffffffff1681565b6000809054906101000a900473ffffffffffffffffffffffffffffffffffffffff1673ffffffffffffffffffffffffffffffffffffffff163373ffffffffffffffffffffffffffffffffffffffff161415156106db57600080fd5b80600760006101000a81548173ffffffffffffffffffffffffffffffffffffffff021916908373ffffffffffffffffffffffffffffffffffffffff16021790555050565b600080600660003373ffffffffffffffffffffffffffffffffffffffff1673ffffffffffffffffffffffffffffffffffffffff1681526020019081526020016000205414151561076e57600080fd5b61077782610b29565b905060648181151561078557fe5b06810390506107948282610bab565b5050565b6000809054906101000a900473ffffffffffffffffffffffffffffffffffffffff1681565b336000806101000a81548173ffffffffffffffffffffffffffffffffffffffff021916908373ffffffffffffffffffffffffffffffffffffffff160217905550565b6000809054906101000a900473ffffffffffffffffffffffffffffffffffffffff1673ffffffffffffffffffffffffffffffffffffffff163373ffffffffffffffffffffffffffffffffffffffff1614151561085a57600080fd5b600073ffffffffffffffffffffffffffffffffffffffff168173ffffffffffffffffffffffffffffffffffffffff161415151561089657600080fd5b8073ffffffffffffffffffffffffffffffffffffffff166000809054906101000a900473ffffffffffffffffffffffffffffffffffffffff1673ffffffffffffffffffffffffffffffffffffffff167f8be0079c531659141344cd1fd0a4f28419497f9722a3daafe3b4186f6b6457e060405160405180910390a3806000806101000a81548173ffffffffffffffffffffffffffffffffffffffff021916908373ffffffffffffffffffffffffffffffffffffffff16021790555050565b600080846005600082815260200190815260200160002060009054906101000a900473ffffffffffffffffffffffffffffffffffffffff1673ffffffffffffffffffffffffffffffffffffffff163373ffffffffffffffffffffffffffffffffffffffff161415156109c557600080fd5b6004868154811015156109d457fe5b906000526020600020906003020192506109ed83610e37565b15156109f857600080fd5b60025485811515610a0557fe5b069450600285846001015401811515610a1a57fe5b04915060405180807f6b697474790000000000000000000000000000000000000000000000000000008152506005019050604051809103902060001916846040518082805190602001908083835b602083101515610a8d5780518252602082019150602081019050602083039250610a68565b6001836020036101000a0380198251168184511680821785525050505050509050019150506040518091039020600019161415610ad9576063606483811515610ad257fe5b0683030191505b610b186040805190810160405280600681526020017f4e6f4e616d65000000000000000000000000000000000000000000000000000081525083610bab565b610b2183610e5e565b505050505050565b600080826040518082805190602001908083835b602083101515610b625780518252602082019150602081019050602083039250610b3d565b6001836020036101000a038019825116818451168082178552505050505050905001915050604051809103902060019004905060025481811515610ba257fe5b06915050919050565b60006001600460c060405190810160405280868152602001858152602001600163ffffffff168152602001600354420163ffffffff168152602001600061ffff168152602001600061ffff16815250908060018154018082558091505090600182039060005260206000209060030201600090919290919091506000820151816000019080519060200190610c41929190610e88565b506020820151816001015560408201518160020160006101000a81548163ffffffff021916908363ffffffff16021790555060608201518160020160046101000a81548163ffffffff021916908363ffffffff16021790555060808201518160020160086101000a81548161ffff021916908361ffff16021790555060a082015181600201600a6101000a81548161ffff021916908361ffff1602179055505050039050336005600083815260200190815260200160002060006101000a81548173ffffffffffffffffffffffffffffffffffffffff021916908373ffffffffffffffffffffffffffffffffffffffff160217905550600660003373ffffffffffffffffffffffffffffffffffffffff1673ffffffffffffffffffffffffffffffffffffffff168152602001908152602001600020600081548092919060010191905055507f88f026aacbbecc90c18411df4b1185fd8d9be2470f1962f192bf84a27d0704b78184846040518084815260200180602001838152602001828103825284818151815260200191508051906020019080838360005b83811015610df6578082015181840152602081019050610ddb565b50505050905090810190601f168015610e235780820380516001836020036101000a031916815260200191505b5094505050505060405180910390a1505050565b6000428260020160049054906101000a900463ffffffff1663ffffffff1611159050919050565b60035442018160020160046101000a81548163ffffffff021916908363ffffffff16021790555050565b828054600181600116156101000203166002900490600052602060002090601f016020900481019282601f10610ec957805160ff1916838001178555610ef7565b82800160010185558215610ef7579182015b82811115610ef6578251825591602001919060010190610edb565b5b509050610f049190610f08565b5090565b610f2a91905b80821115610f26576000816000905550600101610f0e565b5090565b905600a165627a7a72305820f4cdcf8acdbea54ddcd2ce3e48e044341072443c0b00287a4428537b64dd47150029",
  "source": "// SPDX-License-Identifier: MIT\npragma solidity >=0.4.22;\n\nimport \"./zombieFactory.sol\";\n\ncontract KittyInterface {\n    function getKitty(uint256 _id) external view returns (\n        bool isGestating,\n        bool isReady,\n        uint256 cooldownIndex,\n        uint256 nextActionAt,\n        uint256 siringWithId,\n        uint256 birthTime,\n        uint256 matronId,\n        uint256 sireId,\n        uint256 generation,\n        uint256 genes\n    );\n}\n\ncontract ZombieFeeding is ZombieFactory {\n\n    KittyInterface kittyContract;\n\n    modifier onlyOwnerOf(uint _zombieId) {\n        require(msg.sender == zombieToOwner[_zombieId]);\n        _;\n    }\n\n    function setKittyContractAddress(address _address) external onlyOwner {\n        kittyContract = KittyInterface(_address);\n    }\n\n    function _triggerCooldown(Zombie storage _zombie) internal {\n        _zombie.readyTime = uint32(now + cooldownTime);\n    }\n\n    function _isReady(Zombie storage _zombie) internal view returns (bool) {\n        return (_zombie.readyTime <= now);\n    }\n\n    function feedAndMultiply(uint _zombieId, uint _targetDna, string _species) internal onlyOwnerOf(_zombieId) {\n        Zombie storage myZombie = zombies[_zombieId];\n        require(_isReady(myZombie));\n        _targetDna = _targetDna % dnaModulus;\n        uint newDna = (myZombie.dna + _targetDna) / 2;\n        if (keccak256(_species) == keccak256(\"kitty\")) {\n            newDna = newDna - newDna % 100 + 99;\n        }\n        _createZombie(\"NoName\", newDna);\n        _triggerCooldown(myZombie);\n    }\n\n    function feedOnKitty(uint _zombieId, uint _kittyId) public {\n        uint kittyDna;\n        (,,,,,,,,, kittyDna) = kittyContract.getKitty(_kittyId);\n        feedAndMultiply(_zombieId, kittyDna, \"kitty\");\n    }\n}\n",
  "sourcePath": "/home/artem/projects/solidity/cryptozombies/contracts/zombieFeeding.sol",
  "compiler": {
    "name": "solc",
    "version": "0.4.22+commit.4cb486ee.Emscripten.clang"
  },
  "schemaVersion": "3.4.4",
  "updatedAt": "2021-12-28T07:26:31.762Z",
  "devdoc": {
    "methods": {
      "constructor()": {
        "details": "The Ownable constructor sets the original `owner` of the contract to the sender account."
      },
      "transferOwnership(address)": {
        "details": "Allows the current owner to transfer control of the contract to a newOwner.",
        "params": {
          "newOwner": "The address to transfer ownership to."
        }
      }
    }
  },
  "userdoc": {
    "methods": {}
  }
}