{
  "contractName": "ZombieFactory",
  "abi": [
    {
      "constant": true,
      "inputs": [
        {
          "name": "",
          "type": "address"
        }
      ],
      "name": "ownerZombieCount",
      "outputs": [
        {
          "name": "",
          "type": "uint256"
        }
      ],
      "payable": false,
      "stateMutability": "view",
      "type": "function"
    },
    {
      "constant": true,
      "inputs": [
        {
          "name": "",
          "type": "uint256"
        }
      ],
      "name": "zombies",
      "outputs": [
        {
          "name": "name",
          "type": "string"
        },
        {
          "name": "dna",
          "type": "uint256"
        },
        {
          "name": "level",
          "type": "uint32"
        },
        {
          "name": "readyTime",
          "type": "uint32"
        },
        {
          "name": "winCount",
          "type": "uint16"
        },
        {
          "name": "lossCount",
          "type": "uint16"
        }
      ],
      "payable": false,
      "stateMutability": "view",
      "type": "function"
    },
    {
      "constant": true,
      "inputs": [
        {
          "name": "",
          "type": "uint256"
        }
      ],
      "name": "zombieToOwner",
      "outputs": [
        {
          "name": "",
          "type": "address"
        }
      ],
      "payable": false,
      "stateMutability": "view",
      "type": "function"
    },
    {
      "constant": true,
      "inputs": [],
      "name": "owner",
      "outputs": [
        {
          "name": "",
          "type": "address"
        }
      ],
      "payable": false,
      "stateMutability": "view",
      "type": "function"
    },
    {
      "constant": false,
      "inputs": [
        {
          "name": "newOwner",
          "type": "address"
        }
      ],
      "name": "transferOwnership",
      "outputs": [],
      "payable": false,
      "stateMutability": "nonpayable",
      "type": "function"
    },
    {
      "anonymous": false,
      "inputs": [
        {
          "indexed": false,
          "name": "zombieId",
          "type": "uint256"
        },
        {
          "indexed": false,
          "name": "name",
          "type": "string"
        },
        {
          "indexed": false,
          "name": "dna",
          "type": "uint256"
        }
      ],
      "name": "NewZombie",
      "type": "event"
    },
    {
      "anonymous": false,
      "inputs": [
        {
          "indexed": true,
          "name": "previousOwner",
          "type": "address"
        },
        {
          "indexed": true,
          "name": "newOwner",
          "type": "address"
        }
      ],
      "name": "OwnershipTransferred",
      "type": "event"
    },
    {
      "constant": false,
      "inputs": [
        {
          "name": "_name",
          "type": "string"
        }
      ],
      "name": "createRandomZombie",
      "outputs": [],
      "payable": false,
      "stateMutability": "nonpayable",
      "type": "function"
    },
    {
      "constant": false,
      "inputs": [],
      "name": "constructor",
      "outputs": [],
      "payable": false,
      "stateMutability": "nonpayable",
      "type": "function"
    }
  ],
  "bytecode": "0x60806040526010600155600154600a0a600255603c60035534801561002357600080fd5b50610cbc806100336000396000f300608060405260043610610083576000357c0100000000000000000000000000000000000000000000000000000000900463ffffffff16806301afd7e1146100885780632052465e146100c5578063528b7b8f146101075780637bff0a01146101445780638da5cb5b1461016d57806390fa17bb14610198578063f2fde38b146101af575b600080fd5b34801561009457600080fd5b506100af60048036036100aa9190810190610937565b6101d8565b6040516100bc9190610af5565b60405180910390f35b3480156100d157600080fd5b506100ec60048036036100e791908101906109a1565b6101f0565b6040516100fe96959493929190610a8d565b60405180910390f35b34801561011357600080fd5b5061012e600480360361012991908101906109a1565b61030f565b60405161013b9190610a72565b60405180910390f35b34801561015057600080fd5b5061016b60048036036101669190810190610960565b610342565b005b34801561017957600080fd5b506101826103bb565b60405161018f9190610a72565b60405180910390f35b3480156101a457600080fd5b506101ad6103e0565b005b3480156101bb57600080fd5b506101d660048036036101d19190810190610937565b610422565b005b60066020528060005260406000206000915090505481565b6004818154811015156101ff57fe5b9060005260206000209060030201600091509050806000018054600181600116156101000203166002900480601f0160208091040260200160405190810160405280929190818152602001828054600181600116156101000203166002900480156102ab5780601f10610280576101008083540402835291602001916102ab565b820191906000526020600020905b81548152906001019060200180831161028e57829003601f168201915b5050505050908060010154908060020160009054906101000a900463ffffffff16908060020160049054906101000a900463ffffffff16908060020160089054906101000a900461ffff169080600201600a9054906101000a900461ffff16905086565b60056020528060005260406000206000915054906101000a900473ffffffffffffffffffffffffffffffffffffffff1681565b600080600660003373ffffffffffffffffffffffffffffffffffffffff1673ffffffffffffffffffffffffffffffffffffffff1681526020019081526020016000205414151561039157600080fd5b61039a82610577565b90506064818115156103a857fe5b06810390506103b782826105f9565b5050565b6000809054906101000a900473ffffffffffffffffffffffffffffffffffffffff1681565b336000806101000a81548173ffffffffffffffffffffffffffffffffffffffff021916908373ffffffffffffffffffffffffffffffffffffffff160217905550565b6000809054906101000a900473ffffffffffffffffffffffffffffffffffffffff1673ffffffffffffffffffffffffffffffffffffffff163373ffffffffffffffffffffffffffffffffffffffff1614151561047d57600080fd5b600073ffffffffffffffffffffffffffffffffffffffff168173ffffffffffffffffffffffffffffffffffffffff16141515156104b957600080fd5b8073ffffffffffffffffffffffffffffffffffffffff166000809054906101000a900473ffffffffffffffffffffffffffffffffffffffff1673ffffffffffffffffffffffffffffffffffffffff167f8be0079c531659141344cd1fd0a4f28419497f9722a3daafe3b4186f6b6457e060405160405180910390a3806000806101000a81548173ffffffffffffffffffffffffffffffffffffffff021916908373ffffffffffffffffffffffffffffffffffffffff16021790555050565b600080826040518082805190602001908083835b6020831015156105b0578051825260208201915060208101905060208303925061058b565b6001836020036101000a0380198251168184511680821785525050505050509050019150506040518091039020600190049050600254818115156105f057fe5b06915050919050565b60006001600460c060405190810160405280868152602001858152602001600163ffffffff168152602001600354420163ffffffff168152602001600061ffff168152602001600061ffff1681525090806001815401808255809150509060018203906000526020600020906003020160009091929091909150600082015181600001908051906020019061068f929190610814565b506020820151816001015560408201518160020160006101000a81548163ffffffff021916908363ffffffff16021790555060608201518160020160046101000a81548163ffffffff021916908363ffffffff16021790555060808201518160020160086101000a81548161ffff021916908361ffff16021790555060a082015181600201600a6101000a81548161ffff021916908361ffff1602179055505050039050336005600083815260200190815260200160002060006101000a81548173ffffffffffffffffffffffffffffffffffffffff021916908373ffffffffffffffffffffffffffffffffffffffff160217905550600660003373ffffffffffffffffffffffffffffffffffffffff1673ffffffffffffffffffffffffffffffffffffffff168152602001908152602001600020600081548092919060010191905055507f88f026aacbbecc90c18411df4b1185fd8d9be2470f1962f192bf84a27d0704b781848460405161080793929190610b10565b60405180910390a1505050565b828054600181600116156101000203166002900490600052602060002090601f016020900481019282601f1061085557805160ff1916838001178555610883565b82800160010185558215610883579182015b82811115610882578251825591602001919060010190610867565b5b5090506108909190610894565b5090565b6108b691905b808211156108b257600081600090555060010161089a565b5090565b90565b60006108c58235610c05565b905092915050565b600082601f83011215156108e057600080fd5b81356108f36108ee82610b7b565b610b4e565b9150808252602083016020830185838301111561090f57600080fd5b61091a838284610c2f565b50505092915050565b600061092f8235610c25565b905092915050565b60006020828403121561094957600080fd5b6000610957848285016108b9565b91505092915050565b60006020828403121561097257600080fd5b600082013567ffffffffffffffff81111561098c57600080fd5b610998848285016108cd565b91505092915050565b6000602082840312156109b357600080fd5b60006109c184828501610923565b91505092915050565b6109d381610bbd565b82525050565b60006109e482610bb2565b8084526109f8816020860160208601610c3e565b610a0181610c71565b602085010191505092915050565b6000610a1a82610ba7565b808452610a2e816020860160208601610c3e565b610a3781610c71565b602085010191505092915050565b610a4e81610bdd565b82525050565b610a5d81610beb565b82525050565b610a6c81610bf5565b82525050565b6000602082019050610a8760008301846109ca565b92915050565b600060c0820190508181036000830152610aa78189610a0f565b9050610ab66020830188610a54565b610ac36040830187610a63565b610ad06060830186610a63565b610add6080830185610a45565b610aea60a0830184610a45565b979650505050505050565b6000602082019050610b0a6000830184610a54565b92915050565b6000606082019050610b256000830186610a54565b8181036020830152610b3781856109d9565b9050610b466040830184610a54565b949350505050565b6000604051905081810181811067ffffffffffffffff82111715610b7157600080fd5b8060405250919050565b600067ffffffffffffffff821115610b9257600080fd5b601f19601f8301169050602081019050919050565b600081519050919050565b600081519050919050565b600073ffffffffffffffffffffffffffffffffffffffff82169050919050565b600061ffff82169050919050565b6000819050919050565b600063ffffffff82169050919050565b600073ffffffffffffffffffffffffffffffffffffffff82169050919050565b6000819050919050565b82818337600083830152505050565b60005b83811015610c5c578082015181840152602081019050610c41565b83811115610c6b576000848401525b50505050565b6000601f19601f83011690509190505600a265627a7a72305820726a7e52d65aa741ab956aae89e5a232afe410bb919555913ce5e397e97a1ca26c6578706572696d656e74616cf50037",
  "source": "// SPDX-License-Identifier: MIT\npragma solidity >=0.4.22;\npragma experimental ABIEncoderV2;\n\nimport \"./ownable.sol\";\nimport \"./safeMath.sol\";\n\ncontract ZombieFactory is Ownable {\n\n    using SafeMath for uint256;\n\n    event NewZombie(uint zombieId, string name, uint dna);\n\n    uint dnaDigits = 16;\n    uint dnaModulus = 10 ** dnaDigits;\n    uint cooldownTime = 1 minutes;\n\n    struct Zombie {\n        string name;\n        uint dna;\n        uint32 level;\n        uint32 readyTime;\n        uint16 winCount;\n        uint16 lossCount;\n    }\n\n    Zombie[] public zombies;\n\n    mapping(uint => address) public zombieToOwner;\n    mapping(address => uint) public ownerZombieCount;\n\n    function _createZombie(string _name, uint _dna) internal {\n        uint id = zombies.push(Zombie(_name, _dna, 1, uint32(now + cooldownTime), 0, 0)) - 1;\n        zombieToOwner[id] = msg.sender;\n        ownerZombieCount[msg.sender]++;\n        emit NewZombie(id, _name, _dna);\n    }\n\n    function _generateRandomDna(string _str) private view returns (uint) {\n        uint rand = uint(keccak256(_str));\n        return rand % dnaModulus;\n    }\n\n    function createRandomZombie(string _name) public {\n        require(ownerZombieCount[msg.sender] == 0);\n        uint randDna = _generateRandomDna(_name);\n        randDna = randDna - randDna % 100;\n        _createZombie(_name, randDna);\n    }\n}\n",
  "sourcePath": "/home/artem/projects/solidity/cryptozombies/contracts/zombieFactory.sol",
  "compiler": {
    "name": "solc",
    "version": "0.4.22+commit.4cb486ee.Emscripten.clang"
  },
  "schemaVersion": "3.4.4",
  "updatedAt": "2021-12-29T15:13:52.118Z",
  "devdoc": {
    "methods": {
      "constructor()": {
        "details": "The Ownable constructor sets the original `owner` of the contract to the sender account."
      },
      "transferOwnership(address)": {
        "details": "Allows the current owner to transfer control of the contract to a newOwner.",
        "params": {
          "newOwner": "The address to transfer ownership to."
        }
      }
    }
  },
  "userdoc": {
    "methods": {}
  }
}