{
  "contractName": "ZombieFactory",
  "abi": [
    {
      "constant": true,
      "inputs": [
        {
          "name": "",
          "type": "uint256"
        }
      ],
      "name": "zombies",
      "outputs": [
        {
          "name": "name",
          "type": "string"
        },
        {
          "name": "dna",
          "type": "uint256"
        },
        {
          "name": "level",
          "type": "uint32"
        },
        {
          "name": "readyTime",
          "type": "uint32"
        },
        {
          "name": "winCount",
          "type": "uint16"
        },
        {
          "name": "lossCount",
          "type": "uint16"
        }
      ],
      "payable": false,
      "stateMutability": "view",
      "type": "function"
    },
    {
      "constant": true,
      "inputs": [
        {
          "name": "",
          "type": "uint256"
        }
      ],
      "name": "zombieToOwner",
      "outputs": [
        {
          "name": "",
          "type": "address"
        }
      ],
      "payable": false,
      "stateMutability": "view",
      "type": "function"
    },
    {
      "constant": true,
      "inputs": [],
      "name": "owner",
      "outputs": [
        {
          "name": "",
          "type": "address"
        }
      ],
      "payable": false,
      "stateMutability": "view",
      "type": "function"
    },
    {
      "constant": false,
      "inputs": [
        {
          "name": "newOwner",
          "type": "address"
        }
      ],
      "name": "transferOwnership",
      "outputs": [],
      "payable": false,
      "stateMutability": "nonpayable",
      "type": "function"
    },
    {
      "anonymous": false,
      "inputs": [
        {
          "indexed": false,
          "name": "zombieId",
          "type": "uint256"
        },
        {
          "indexed": false,
          "name": "name",
          "type": "string"
        },
        {
          "indexed": false,
          "name": "dna",
          "type": "uint256"
        }
      ],
      "name": "NewZombie",
      "type": "event"
    },
    {
      "anonymous": false,
      "inputs": [
        {
          "indexed": true,
          "name": "previousOwner",
          "type": "address"
        },
        {
          "indexed": true,
          "name": "newOwner",
          "type": "address"
        }
      ],
      "name": "OwnershipTransferred",
      "type": "event"
    },
    {
      "constant": false,
      "inputs": [
        {
          "name": "_name",
          "type": "string"
        }
      ],
      "name": "createRandomZombie",
      "outputs": [],
      "payable": false,
      "stateMutability": "nonpayable",
      "type": "function"
    },
    {
      "constant": false,
      "inputs": [],
      "name": "constructor",
      "outputs": [],
      "payable": false,
      "stateMutability": "nonpayable",
      "type": "function"
    },
    {
      "constant": true,
      "inputs": [],
      "name": "getOwnerZombieIds",
      "outputs": [
        {
          "name": "",
          "type": "uint256[]"
        }
      ],
      "payable": false,
      "stateMutability": "view",
      "type": "function"
    }
  ],
  "bytecode": "0x60806040526010600155600154600a0a6002556201518060035534801561002557600080fd5b50610ea4806100356000396000f300608060405260043610610083576000357c0100000000000000000000000000000000000000000000000000000000900463ffffffff1680632052465e14610088578063528b7b8f146100ca5780637bff0a01146101075780638da5cb5b1461013057806390fa17bb1461015b578063db5f38a414610172578063f2fde38b1461019d575b600080fd5b34801561009457600080fd5b506100af60048036036100aa9190810190610b02565b6101c6565b6040516100c196959493929190610c6b565b60405180910390f35b3480156100d657600080fd5b506100f160048036036100ec9190810190610b02565b6102e5565b6040516100fe9190610c2e565b60405180910390f35b34801561011357600080fd5b5061012e60048036036101299190810190610ac1565b610318565b005b34801561013c57600080fd5b50610145610391565b6040516101529190610c2e565b60405180910390f35b34801561016757600080fd5b506101706103b6565b005b34801561017e57600080fd5b506101876103f8565b6040516101949190610c49565b60405180910390f35b3480156101a957600080fd5b506101c460048036036101bf9190810190610a98565b610583565b005b6004818154811015156101d557fe5b9060005260206000209060030201600091509050806000018054600181600116156101000203166002900480601f0160208091040260200160405190810160405280929190818152602001828054600181600116156101000203166002900480156102815780601f1061025657610100808354040283529160200191610281565b820191906000526020600020905b81548152906001019060200180831161026457829003601f168201915b5050505050908060010154908060020160009054906101000a900463ffffffff16908060020160049054906101000a900463ffffffff16908060020160089054906101000a900461ffff169080600201600a9054906101000a900461ffff16905086565b60056020528060005260406000206000915054906101000a900473ffffffffffffffffffffffffffffffffffffffff1681565b600080600660003373ffffffffffffffffffffffffffffffffffffffff1673ffffffffffffffffffffffffffffffffffffffff1681526020019081526020016000205414151561036757600080fd5b610370826106d8565b905060648181151561037e57fe5b068103905061038d828261075a565b5050565b6000809054906101000a900473ffffffffffffffffffffffffffffffffffffffff1681565b336000806101000a81548173ffffffffffffffffffffffffffffffffffffffff021916908373ffffffffffffffffffffffffffffffffffffffff160217905550565b6060806000806000809054906101000a900473ffffffffffffffffffffffffffffffffffffffff1673ffffffffffffffffffffffffffffffffffffffff163373ffffffffffffffffffffffffffffffffffffffff1614151561045957600080fd5b600660003373ffffffffffffffffffffffffffffffffffffffff1673ffffffffffffffffffffffffffffffffffffffff168152602001908152602001600020546040519080825280602002602001820160405280156104c75781602001602082028038833980820191505090505b50925060009150600090505b60048054905081101561057a573373ffffffffffffffffffffffffffffffffffffffff166005600083815260200190815260200160002060009054906101000a900473ffffffffffffffffffffffffffffffffffffffff1673ffffffffffffffffffffffffffffffffffffffff16141561056d5780838381518110151561055657fe5b906020019060200201818152505081806001019250505b80806001019150506104d3565b82935050505090565b6000809054906101000a900473ffffffffffffffffffffffffffffffffffffffff1673ffffffffffffffffffffffffffffffffffffffff163373ffffffffffffffffffffffffffffffffffffffff161415156105de57600080fd5b600073ffffffffffffffffffffffffffffffffffffffff168173ffffffffffffffffffffffffffffffffffffffff161415151561061a57600080fd5b8073ffffffffffffffffffffffffffffffffffffffff166000809054906101000a900473ffffffffffffffffffffffffffffffffffffffff1673ffffffffffffffffffffffffffffffffffffffff167f8be0079c531659141344cd1fd0a4f28419497f9722a3daafe3b4186f6b6457e060405160405180910390a3806000806101000a81548173ffffffffffffffffffffffffffffffffffffffff021916908373ffffffffffffffffffffffffffffffffffffffff16021790555050565b600080826040518082805190602001908083835b60208310151561071157805182526020820191506020810190506020830392506106ec565b6001836020036101000a03801982511681845116808217855250505050505090500191505060405180910390206001900490506002548181151561075157fe5b06915050919050565b60006001600460c060405190810160405280868152602001858152602001600163ffffffff168152602001600354420163ffffffff168152602001600061ffff168152602001600061ffff168152509080600181540180825580915050906001820390600052602060002090600302016000909192909190915060008201518160000190805190602001906107f0929190610975565b506020820151816001015560408201518160020160006101000a81548163ffffffff021916908363ffffffff16021790555060608201518160020160046101000a81548163ffffffff021916908363ffffffff16021790555060808201518160020160086101000a81548161ffff021916908361ffff16021790555060a082015181600201600a6101000a81548161ffff021916908361ffff1602179055505050039050336005600083815260200190815260200160002060006101000a81548173ffffffffffffffffffffffffffffffffffffffff021916908373ffffffffffffffffffffffffffffffffffffffff160217905550600660003373ffffffffffffffffffffffffffffffffffffffff1673ffffffffffffffffffffffffffffffffffffffff168152602001908152602001600020600081548092919060010191905055507f88f026aacbbecc90c18411df4b1185fd8d9be2470f1962f192bf84a27d0704b781848460405161096893929190610cd3565b60405180910390a1505050565b828054600181600116156101000203166002900490600052602060002090601f016020900481019282601f106109b657805160ff19168380011785556109e4565b828001600101855582156109e4579182015b828111156109e35782518255916020019190600101906109c8565b5b5090506109f191906109f5565b5090565b610a1791905b80821115610a135760008160009055506001016109fb565b5090565b90565b6000610a268235610ded565b905092915050565b600082601f8301121515610a4157600080fd5b8135610a54610a4f82610d3e565b610d11565b91508082526020830160208301858383011115610a7057600080fd5b610a7b838284610e17565b50505092915050565b6000610a908235610e0d565b905092915050565b600060208284031215610aaa57600080fd5b6000610ab884828501610a1a565b91505092915050565b600060208284031215610ad357600080fd5b600082013567ffffffffffffffff811115610aed57600080fd5b610af984828501610a2e565b91505092915050565b600060208284031215610b1457600080fd5b6000610b2284828501610a84565b91505092915050565b610b3481610da5565b82525050565b6000610b4582610d77565b808452602084019350610b5783610d6a565b60005b82811015610b8957610b6d868351610c10565b610b7682610d98565b9150602086019550600181019050610b5a565b50849250505092915050565b6000610ba082610d8d565b808452610bb4816020860160208601610e26565b610bbd81610e59565b602085010191505092915050565b6000610bd682610d82565b808452610bea816020860160208601610e26565b610bf381610e59565b602085010191505092915050565b610c0a81610dc5565b82525050565b610c1981610dd3565b82525050565b610c2881610ddd565b82525050565b6000602082019050610c436000830184610b2b565b92915050565b60006020820190508181036000830152610c638184610b3a565b905092915050565b600060c0820190508181036000830152610c858189610bcb565b9050610c946020830188610c10565b610ca16040830187610c1f565b610cae6060830186610c1f565b610cbb6080830185610c01565b610cc860a0830184610c01565b979650505050505050565b6000606082019050610ce86000830186610c10565b8181036020830152610cfa8185610b95565b9050610d096040830184610c10565b949350505050565b6000604051905081810181811067ffffffffffffffff82111715610d3457600080fd5b8060405250919050565b600067ffffffffffffffff821115610d5557600080fd5b601f19601f8301169050602081019050919050565b6000602082019050919050565b600081519050919050565b600081519050919050565b600081519050919050565b6000602082019050919050565b600073ffffffffffffffffffffffffffffffffffffffff82169050919050565b600061ffff82169050919050565b6000819050919050565b600063ffffffff82169050919050565b600073ffffffffffffffffffffffffffffffffffffffff82169050919050565b6000819050919050565b82818337600083830152505050565b60005b83811015610e44578082015181840152602081019050610e29565b83811115610e53576000848401525b50505050565b6000601f19601f83011690509190505600a265627a7a72305820e15a0979376f980574cfc97f3c64dc35fdc42ebaab54b944b9b448ca56d66faa6c6578706572696d656e74616cf50037",
  "source": "// SPDX-License-Identifier: MIT\npragma solidity >=0.4.22;\npragma experimental ABIEncoderV2;\n\nimport \"./ownable.sol\";\nimport \"./safeMath.sol\";\n\ncontract ZombieFactory is Ownable {\n\n    using SafeMath for uint256;\n\n    event NewZombie(uint zombieId, string name, uint dna);\n\n    uint dnaDigits = 16;\n    uint dnaModulus = 10 ** dnaDigits;\n    uint cooldownTime = 1 days;\n\n    struct Zombie {\n        string name;\n        uint dna;\n        uint32 level;\n        uint32 readyTime;\n        uint16 winCount;\n        uint16 lossCount;\n    }\n\n    Zombie[] public zombies;\n\n    mapping(uint => address) public zombieToOwner;\n    mapping(address => uint) ownerZombieCount;\n\n    function _createZombie(string _name, uint _dna) internal {\n        uint id = zombies.push(Zombie(_name, _dna, 1, uint32(now + cooldownTime), 0, 0)) - 1;\n        zombieToOwner[id] = msg.sender;\n        ownerZombieCount[msg.sender]++;\n        emit NewZombie(id, _name, _dna);\n    }\n\n    function _generateRandomDna(string _str) private view returns (uint) {\n        uint rand = uint(keccak256(_str));\n        return rand % dnaModulus;\n    }\n\n    function createRandomZombie(string _name) public {\n        require(ownerZombieCount[msg.sender] == 0);\n        uint randDna = _generateRandomDna(_name);\n        randDna = randDna - randDna % 100;\n        _createZombie(_name, randDna);\n    }\n\n    function getOwnerZombieIds() external onlyOwner view returns (uint[]) {\n        uint[] memory result = new uint[](ownerZombieCount[msg.sender]);\n        uint counter = 0;\n        for (uint i = 0; i < zombies.length; i++) {\n            if (zombieToOwner[i] == msg.sender) {\n                result[counter] = i;\n                counter++;\n            }\n        }\n        return result;\n    }\n\n}\n",
  "sourcePath": "/home/artem/projects/solidity/cryptozombies/contracts/zombieFactory.sol",
  "compiler": {
    "name": "solc",
    "version": "0.4.22+commit.4cb486ee.Emscripten.clang"
  },
  "schemaVersion": "3.4.4",
  "updatedAt": "2021-12-27T23:21:02.293Z",
  "devdoc": {
    "methods": {
      "constructor()": {
        "details": "The Ownable constructor sets the original `owner` of the contract to the sender account."
      },
      "transferOwnership(address)": {
        "details": "Allows the current owner to transfer control of the contract to a newOwner.",
        "params": {
          "newOwner": "The address to transfer ownership to."
        }
      }
    }
  },
  "userdoc": {
    "methods": {}
  }
}