{
  "contractName": "ZombieFactory",
  "abi": [
    {
      "constant": true,
      "inputs": [
        {
          "name": "",
          "type": "uint256"
        }
      ],
      "name": "zombies",
      "outputs": [
        {
          "name": "name",
          "type": "string"
        },
        {
          "name": "dna",
          "type": "uint256"
        },
        {
          "name": "level",
          "type": "uint32"
        },
        {
          "name": "readyTime",
          "type": "uint32"
        },
        {
          "name": "winCount",
          "type": "uint16"
        },
        {
          "name": "lossCount",
          "type": "uint16"
        }
      ],
      "payable": false,
      "stateMutability": "view",
      "type": "function"
    },
    {
      "constant": true,
      "inputs": [
        {
          "name": "",
          "type": "uint256"
        }
      ],
      "name": "zombieToOwner",
      "outputs": [
        {
          "name": "",
          "type": "address"
        }
      ],
      "payable": false,
      "stateMutability": "view",
      "type": "function"
    },
    {
      "constant": true,
      "inputs": [],
      "name": "owner",
      "outputs": [
        {
          "name": "",
          "type": "address"
        }
      ],
      "payable": false,
      "stateMutability": "view",
      "type": "function"
    },
    {
      "constant": false,
      "inputs": [
        {
          "name": "newOwner",
          "type": "address"
        }
      ],
      "name": "transferOwnership",
      "outputs": [],
      "payable": false,
      "stateMutability": "nonpayable",
      "type": "function"
    },
    {
      "anonymous": false,
      "inputs": [
        {
          "indexed": false,
          "name": "zombieId",
          "type": "uint256"
        },
        {
          "indexed": false,
          "name": "name",
          "type": "string"
        },
        {
          "indexed": false,
          "name": "dna",
          "type": "uint256"
        }
      ],
      "name": "NewZombie",
      "type": "event"
    },
    {
      "anonymous": false,
      "inputs": [
        {
          "indexed": true,
          "name": "previousOwner",
          "type": "address"
        },
        {
          "indexed": true,
          "name": "newOwner",
          "type": "address"
        }
      ],
      "name": "OwnershipTransferred",
      "type": "event"
    },
    {
      "constant": false,
      "inputs": [
        {
          "name": "_name",
          "type": "string"
        }
      ],
      "name": "createRandomZombie",
      "outputs": [],
      "payable": false,
      "stateMutability": "nonpayable",
      "type": "function"
    },
    {
      "constant": false,
      "inputs": [],
      "name": "constructor",
      "outputs": [],
      "payable": false,
      "stateMutability": "nonpayable",
      "type": "function"
    }
  ],
  "bytecode": "0x60806040526010600155600154600a0a6002556201518060035534801561002557600080fd5b50610c41806100356000396000f300608060405260043610610078576000357c0100000000000000000000000000000000000000000000000000000000900463ffffffff1680632052465e1461007d578063528b7b8f146100bf5780637bff0a01146100fc5780638da5cb5b1461012557806390fa17bb14610150578063f2fde38b14610167575b600080fd5b34801561008957600080fd5b506100a4600480360361009f9190810190610941565b610190565b6040516100b696959493929190610a2d565b60405180910390f35b3480156100cb57600080fd5b506100e660048036036100e19190810190610941565b6102af565b6040516100f39190610a12565b60405180910390f35b34801561010857600080fd5b50610123600480360361011e9190810190610900565b6102e2565b005b34801561013157600080fd5b5061013a61035b565b6040516101479190610a12565b60405180910390f35b34801561015c57600080fd5b50610165610380565b005b34801561017357600080fd5b5061018e600480360361018991908101906108d7565b6103c2565b005b60048181548110151561019f57fe5b9060005260206000209060030201600091509050806000018054600181600116156101000203166002900480601f01602080910402602001604051908101604052809291908181526020018280546001816001161561010002031660029004801561024b5780601f106102205761010080835404028352916020019161024b565b820191906000526020600020905b81548152906001019060200180831161022e57829003601f168201915b5050505050908060010154908060020160009054906101000a900463ffffffff16908060020160049054906101000a900463ffffffff16908060020160089054906101000a900461ffff169080600201600a9054906101000a900461ffff16905086565b60056020528060005260406000206000915054906101000a900473ffffffffffffffffffffffffffffffffffffffff1681565b600080600660003373ffffffffffffffffffffffffffffffffffffffff1673ffffffffffffffffffffffffffffffffffffffff1681526020019081526020016000205414151561033157600080fd5b61033a82610517565b905060648181151561034857fe5b06810390506103578282610599565b5050565b6000809054906101000a900473ffffffffffffffffffffffffffffffffffffffff1681565b336000806101000a81548173ffffffffffffffffffffffffffffffffffffffff021916908373ffffffffffffffffffffffffffffffffffffffff160217905550565b6000809054906101000a900473ffffffffffffffffffffffffffffffffffffffff1673ffffffffffffffffffffffffffffffffffffffff163373ffffffffffffffffffffffffffffffffffffffff1614151561041d57600080fd5b600073ffffffffffffffffffffffffffffffffffffffff168173ffffffffffffffffffffffffffffffffffffffff161415151561045957600080fd5b8073ffffffffffffffffffffffffffffffffffffffff166000809054906101000a900473ffffffffffffffffffffffffffffffffffffffff1673ffffffffffffffffffffffffffffffffffffffff167f8be0079c531659141344cd1fd0a4f28419497f9722a3daafe3b4186f6b6457e060405160405180910390a3806000806101000a81548173ffffffffffffffffffffffffffffffffffffffff021916908373ffffffffffffffffffffffffffffffffffffffff16021790555050565b600080826040518082805190602001908083835b602083101515610550578051825260208201915060208101905060208303925061052b565b6001836020036101000a03801982511681845116808217855250505050505090500191505060405180910390206001900490506002548181151561059057fe5b06915050919050565b60006001600460c060405190810160405280868152602001858152602001600163ffffffff168152602001600354420163ffffffff168152602001600061ffff168152602001600061ffff1681525090806001815401808255809150509060018203906000526020600020906003020160009091929091909150600082015181600001908051906020019061062f9291906107b4565b506020820151816001015560408201518160020160006101000a81548163ffffffff021916908363ffffffff16021790555060608201518160020160046101000a81548163ffffffff021916908363ffffffff16021790555060808201518160020160086101000a81548161ffff021916908361ffff16021790555060a082015181600201600a6101000a81548161ffff021916908361ffff1602179055505050039050336005600083815260200190815260200160002060006101000a81548173ffffffffffffffffffffffffffffffffffffffff021916908373ffffffffffffffffffffffffffffffffffffffff160217905550600660003373ffffffffffffffffffffffffffffffffffffffff1673ffffffffffffffffffffffffffffffffffffffff168152602001908152602001600020600081548092919060010191905055507f88f026aacbbecc90c18411df4b1185fd8d9be2470f1962f192bf84a27d0704b78184846040516107a793929190610a95565b60405180910390a1505050565b828054600181600116156101000203166002900490600052602060002090601f016020900481019282601f106107f557805160ff1916838001178555610823565b82800160010185558215610823579182015b82811115610822578251825591602001919060010190610807565b5b5090506108309190610834565b5090565b61085691905b8082111561085257600081600090555060010161083a565b5090565b90565b60006108658235610b8a565b905092915050565b600082601f830112151561088057600080fd5b813561089361088e82610b00565b610ad3565b915080825260208301602083018583830111156108af57600080fd5b6108ba838284610bb4565b50505092915050565b60006108cf8235610baa565b905092915050565b6000602082840312156108e957600080fd5b60006108f784828501610859565b91505092915050565b60006020828403121561091257600080fd5b600082013567ffffffffffffffff81111561092c57600080fd5b6109388482850161086d565b91505092915050565b60006020828403121561095357600080fd5b6000610961848285016108c3565b91505092915050565b61097381610b42565b82525050565b600061098482610b37565b808452610998816020860160208601610bc3565b6109a181610bf6565b602085010191505092915050565b60006109ba82610b2c565b8084526109ce816020860160208601610bc3565b6109d781610bf6565b602085010191505092915050565b6109ee81610b62565b82525050565b6109fd81610b70565b82525050565b610a0c81610b7a565b82525050565b6000602082019050610a27600083018461096a565b92915050565b600060c0820190508181036000830152610a4781896109af565b9050610a5660208301886109f4565b610a636040830187610a03565b610a706060830186610a03565b610a7d60808301856109e5565b610a8a60a08301846109e5565b979650505050505050565b6000606082019050610aaa60008301866109f4565b8181036020830152610abc8185610979565b9050610acb60408301846109f4565b949350505050565b6000604051905081810181811067ffffffffffffffff82111715610af657600080fd5b8060405250919050565b600067ffffffffffffffff821115610b1757600080fd5b601f19601f8301169050602081019050919050565b600081519050919050565b600081519050919050565b600073ffffffffffffffffffffffffffffffffffffffff82169050919050565b600061ffff82169050919050565b6000819050919050565b600063ffffffff82169050919050565b600073ffffffffffffffffffffffffffffffffffffffff82169050919050565b6000819050919050565b82818337600083830152505050565b60005b83811015610be1578082015181840152602081019050610bc6565b83811115610bf0576000848401525b50505050565b6000601f19601f83011690509190505600a265627a7a723058207c3a058ce79b65c4ae928a05110d140a39a6bf44fcb378565e9edcb341dd89106c6578706572696d656e74616cf50037",
  "source": "// SPDX-License-Identifier: MIT\npragma solidity >=0.4.22;\npragma experimental ABIEncoderV2;\n\nimport \"./ownable.sol\";\nimport \"./safeMath.sol\";\n\ncontract ZombieFactory is Ownable {\n\n    using SafeMath for uint256;\n\n    event NewZombie(uint zombieId, string name, uint dna);\n\n    uint dnaDigits = 16;\n    uint dnaModulus = 10 ** dnaDigits;\n    uint cooldownTime = 1 days;\n\n    struct Zombie {\n        string name;\n        uint dna;\n        uint32 level;\n        uint32 readyTime;\n        uint16 winCount;\n        uint16 lossCount;\n    }\n\n    Zombie[] public zombies;\n\n    mapping(uint => address) public zombieToOwner;\n    mapping(address => uint) ownerZombieCount;\n\n    function _createZombie(string _name, uint _dna) internal {\n        uint id = zombies.push(Zombie(_name, _dna, 1, uint32(now + cooldownTime), 0, 0)) - 1;\n        zombieToOwner[id] = msg.sender;\n        ownerZombieCount[msg.sender]++;\n        emit NewZombie(id, _name, _dna);\n    }\n\n    function _generateRandomDna(string _str) private view returns (uint) {\n        uint rand = uint(keccak256(_str));\n        return rand % dnaModulus;\n    }\n\n    function createRandomZombie(string _name) public {\n        require(ownerZombieCount[msg.sender] == 0);\n        uint randDna = _generateRandomDna(_name);\n        randDna = randDna - randDna % 100;\n        _createZombie(_name, randDna);\n    }\n}\n",
  "sourcePath": "/home/artem/projects/solidity/cryptozombies/contracts/zombieFactory.sol",
  "compiler": {
    "name": "solc",
    "version": "0.4.22+commit.4cb486ee.Emscripten.clang"
  },
  "schemaVersion": "3.4.4",
  "updatedAt": "2021-12-28T07:26:31.757Z",
  "devdoc": {
    "methods": {
      "constructor()": {
        "details": "The Ownable constructor sets the original `owner` of the contract to the sender account."
      },
      "transferOwnership(address)": {
        "details": "Allows the current owner to transfer control of the contract to a newOwner.",
        "params": {
          "newOwner": "The address to transfer ownership to."
        }
      }
    }
  },
  "userdoc": {
    "methods": {}
  }
}