{
  "contractName": "ZombieFeeding",
  "abi": [
    {
      "constant": true,
      "inputs": [
        {
          "name": "",
          "type": "address"
        }
      ],
      "name": "ownerZombieCount",
      "outputs": [
        {
          "name": "",
          "type": "uint256"
        }
      ],
      "payable": false,
      "stateMutability": "view",
      "type": "function"
    },
    {
      "constant": true,
      "inputs": [
        {
          "name": "",
          "type": "uint256"
        }
      ],
      "name": "zombies",
      "outputs": [
        {
          "name": "name",
          "type": "string"
        },
        {
          "name": "dna",
          "type": "uint256"
        },
        {
          "name": "level",
          "type": "uint32"
        },
        {
          "name": "readyTime",
          "type": "uint32"
        },
        {
          "name": "winCount",
          "type": "uint16"
        },
        {
          "name": "lossCount",
          "type": "uint16"
        }
      ],
      "payable": false,
      "stateMutability": "view",
      "type": "function"
    },
    {
      "constant": true,
      "inputs": [
        {
          "name": "",
          "type": "uint256"
        }
      ],
      "name": "zombieToOwner",
      "outputs": [
        {
          "name": "",
          "type": "address"
        }
      ],
      "payable": false,
      "stateMutability": "view",
      "type": "function"
    },
    {
      "constant": false,
      "inputs": [
        {
          "name": "_name",
          "type": "string"
        }
      ],
      "name": "createRandomZombie",
      "outputs": [],
      "payable": false,
      "stateMutability": "nonpayable",
      "type": "function"
    },
    {
      "constant": true,
      "inputs": [],
      "name": "owner",
      "outputs": [
        {
          "name": "",
          "type": "address"
        }
      ],
      "payable": false,
      "stateMutability": "view",
      "type": "function"
    },
    {
      "constant": false,
      "inputs": [
        {
          "name": "newOwner",
          "type": "address"
        }
      ],
      "name": "transferOwnership",
      "outputs": [],
      "payable": false,
      "stateMutability": "nonpayable",
      "type": "function"
    },
    {
      "anonymous": false,
      "inputs": [
        {
          "indexed": false,
          "name": "zombieId",
          "type": "uint256"
        },
        {
          "indexed": false,
          "name": "name",
          "type": "string"
        },
        {
          "indexed": false,
          "name": "dna",
          "type": "uint256"
        }
      ],
      "name": "NewZombie",
      "type": "event"
    },
    {
      "anonymous": false,
      "inputs": [
        {
          "indexed": true,
          "name": "previousOwner",
          "type": "address"
        },
        {
          "indexed": true,
          "name": "newOwner",
          "type": "address"
        }
      ],
      "name": "OwnershipTransferred",
      "type": "event"
    },
    {
      "constant": false,
      "inputs": [
        {
          "name": "_address",
          "type": "address"
        }
      ],
      "name": "setKittyContractAddress",
      "outputs": [],
      "payable": false,
      "stateMutability": "nonpayable",
      "type": "function"
    },
    {
      "constant": false,
      "inputs": [
        {
          "name": "_zombieId",
          "type": "uint256"
        },
        {
          "name": "_kittyId",
          "type": "uint256"
        }
      ],
      "name": "feedOnKitty",
      "outputs": [],
      "payable": false,
      "stateMutability": "nonpayable",
      "type": "function"
    },
    {
      "constant": false,
      "inputs": [],
      "name": "constructor",
      "outputs": [],
      "payable": false,
      "stateMutability": "nonpayable",
      "type": "function"
    }
  ],
  "bytecode": "0x60806040526010600155600154600a0a600255603c60035534801561002357600080fd5b50610fd3806100336000396000f300608060405260043610610099576000357c0100000000000000000000000000000000000000000000000000000000900463ffffffff16806301afd7e11461009e57806317a7f4cc146100f55780632052465e1461012c578063528b7b8f1461021d5780635f4623f11461028a5780637bff0a01146102cd5780638da5cb5b1461033657806390fa17bb1461038d578063f2fde38b146103a4575b600080fd5b3480156100aa57600080fd5b506100df600480360381019080803573ffffffffffffffffffffffffffffffffffffffff1690602001909291905050506103e7565b6040518082815260200191505060405180910390f35b34801561010157600080fd5b5061012a60048036038101908080359060200190929190803590602001909291905050506103ff565b005b34801561013857600080fd5b50610157600480360381019080803590602001909291905050506105a8565b60405180806020018781526020018663ffffffff1663ffffffff1681526020018563ffffffff1663ffffffff1681526020018461ffff1661ffff1681526020018361ffff1661ffff168152602001828103825288818151815260200191508051906020019080838360005b838110156101dd5780820151818401526020810190506101c2565b50505050905090810190601f16801561020a5780820380516001836020036101000a031916815260200191505b5097505050505050505060405180910390f35b34801561022957600080fd5b50610248600480360381019080803590602001909291905050506106c7565b604051808273ffffffffffffffffffffffffffffffffffffffff1673ffffffffffffffffffffffffffffffffffffffff16815260200191505060405180910390f35b34801561029657600080fd5b506102cb600480360381019080803573ffffffffffffffffffffffffffffffffffffffff1690602001909291905050506106fa565b005b3480156102d957600080fd5b50610334600480360381019080803590602001908201803590602001908080601f0160208091040260200160405190810160405280939291908181526020018383808284378201915050505050509192919290505050610799565b005b34801561034257600080fd5b5061034b610812565b604051808273ffffffffffffffffffffffffffffffffffffffff1673ffffffffffffffffffffffffffffffffffffffff16815260200191505060405180910390f35b34801561039957600080fd5b506103a2610837565b005b3480156103b057600080fd5b506103e5600480360381019080803573ffffffffffffffffffffffffffffffffffffffff169060200190929190505050610879565b005b60066020528060005260406000206000915090505481565b6000600760009054906101000a900473ffffffffffffffffffffffffffffffffffffffff1673ffffffffffffffffffffffffffffffffffffffff1663e98b7f4d836040518263ffffffff167c01000000000000000000000000000000000000000000000000000000000281526004018082815260200191505061014060405180830381600087803b15801561049357600080fd5b505af11580156104a7573d6000803e3d6000fd5b505050506040513d6101408110156104be57600080fd5b8101908080519060200190929190805190602001909291908051906020019092919080519060200190929190805190602001909291908051906020019092919080519060200190929190805190602001909291908051906020019092919080519060200190929190505050909192939495969798509091929394959697509091929394959650909192939495509091929394509091929350909192509091509050809150506105a383826040805190810160405280600581526020017f6b697474790000000000000000000000000000000000000000000000000000008152506109ce565b505050565b6004818154811015156105b757fe5b9060005260206000209060030201600091509050806000018054600181600116156101000203166002900480601f0160208091040260200160405190810160405280929190818152602001828054600181600116156101000203166002900480156106635780601f1061063857610100808354040283529160200191610663565b820191906000526020600020905b81548152906001019060200180831161064657829003601f168201915b5050505050908060010154908060020160009054906101000a900463ffffffff16908060020160049054906101000a900463ffffffff16908060020160089054906101000a900461ffff169080600201600a9054906101000a900461ffff16905086565b60056020528060005260406000206000915054906101000a900473ffffffffffffffffffffffffffffffffffffffff1681565b6000809054906101000a900473ffffffffffffffffffffffffffffffffffffffff1673ffffffffffffffffffffffffffffffffffffffff163373ffffffffffffffffffffffffffffffffffffffff1614151561075557600080fd5b80600760006101000a81548173ffffffffffffffffffffffffffffffffffffffff021916908373ffffffffffffffffffffffffffffffffffffffff16021790555050565b600080600660003373ffffffffffffffffffffffffffffffffffffffff1673ffffffffffffffffffffffffffffffffffffffff168152602001908152602001600020541415156107e857600080fd5b6107f182610ba3565b90506064818115156107ff57fe5b068103905061080e8282610c25565b5050565b6000809054906101000a900473ffffffffffffffffffffffffffffffffffffffff1681565b336000806101000a81548173ffffffffffffffffffffffffffffffffffffffff021916908373ffffffffffffffffffffffffffffffffffffffff160217905550565b6000809054906101000a900473ffffffffffffffffffffffffffffffffffffffff1673ffffffffffffffffffffffffffffffffffffffff163373ffffffffffffffffffffffffffffffffffffffff161415156108d457600080fd5b600073ffffffffffffffffffffffffffffffffffffffff168173ffffffffffffffffffffffffffffffffffffffff161415151561091057600080fd5b8073ffffffffffffffffffffffffffffffffffffffff166000809054906101000a900473ffffffffffffffffffffffffffffffffffffffff1673ffffffffffffffffffffffffffffffffffffffff167f8be0079c531659141344cd1fd0a4f28419497f9722a3daafe3b4186f6b6457e060405160405180910390a3806000806101000a81548173ffffffffffffffffffffffffffffffffffffffff021916908373ffffffffffffffffffffffffffffffffffffffff16021790555050565b600080846005600082815260200190815260200160002060009054906101000a900473ffffffffffffffffffffffffffffffffffffffff1673ffffffffffffffffffffffffffffffffffffffff163373ffffffffffffffffffffffffffffffffffffffff16141515610a3f57600080fd5b600486815481101515610a4e57fe5b90600052602060002090600302019250610a6783610eb1565b1515610a7257600080fd5b60025485811515610a7f57fe5b069450600285846001015401811515610a9457fe5b04915060405180807f6b697474790000000000000000000000000000000000000000000000000000008152506005019050604051809103902060001916846040518082805190602001908083835b602083101515610b075780518252602082019150602081019050602083039250610ae2565b6001836020036101000a0380198251168184511680821785525050505050509050019150506040518091039020600019161415610b53576063606483811515610b4c57fe5b0683030191505b610b926040805190810160405280600681526020017f4e6f4e616d65000000000000000000000000000000000000000000000000000081525083610c25565b610b9b83610ed8565b505050505050565b600080826040518082805190602001908083835b602083101515610bdc5780518252602082019150602081019050602083039250610bb7565b6001836020036101000a038019825116818451168082178552505050505050905001915050604051809103902060019004905060025481811515610c1c57fe5b06915050919050565b60006001600460c060405190810160405280868152602001858152602001600163ffffffff168152602001600354420163ffffffff168152602001600061ffff168152602001600061ffff16815250908060018154018082558091505090600182039060005260206000209060030201600090919290919091506000820151816000019080519060200190610cbb929190610f02565b506020820151816001015560408201518160020160006101000a81548163ffffffff021916908363ffffffff16021790555060608201518160020160046101000a81548163ffffffff021916908363ffffffff16021790555060808201518160020160086101000a81548161ffff021916908361ffff16021790555060a082015181600201600a6101000a81548161ffff021916908361ffff1602179055505050039050336005600083815260200190815260200160002060006101000a81548173ffffffffffffffffffffffffffffffffffffffff021916908373ffffffffffffffffffffffffffffffffffffffff160217905550600660003373ffffffffffffffffffffffffffffffffffffffff1673ffffffffffffffffffffffffffffffffffffffff168152602001908152602001600020600081548092919060010191905055507f88f026aacbbecc90c18411df4b1185fd8d9be2470f1962f192bf84a27d0704b78184846040518084815260200180602001838152602001828103825284818151815260200191508051906020019080838360005b83811015610e70578082015181840152602081019050610e55565b50505050905090810190601f168015610e9d5780820380516001836020036101000a031916815260200191505b5094505050505060405180910390a1505050565b6000428260020160049054906101000a900463ffffffff1663ffffffff1611159050919050565b60035442018160020160046101000a81548163ffffffff021916908363ffffffff16021790555050565b828054600181600116156101000203166002900490600052602060002090601f016020900481019282601f10610f4357805160ff1916838001178555610f71565b82800160010185558215610f71579182015b82811115610f70578251825591602001919060010190610f55565b5b509050610f7e9190610f82565b5090565b610fa491905b80821115610fa0576000816000905550600101610f88565b5090565b905600a165627a7a72305820fd0d8a6614decfac7c4421c402908216a088cf479d6703f783b1d1cccb33504e0029",
  "source": "// SPDX-License-Identifier: MIT\npragma solidity >=0.4.22;\n\nimport \"./zombieFactory.sol\";\n\ncontract KittyInterface {\n    function getKitty(uint256 _id) external view returns (\n        bool isGestating,\n        bool isReady,\n        uint256 cooldownIndex,\n        uint256 nextActionAt,\n        uint256 siringWithId,\n        uint256 birthTime,\n        uint256 matronId,\n        uint256 sireId,\n        uint256 generation,\n        uint256 genes\n    );\n}\n\ncontract ZombieFeeding is ZombieFactory {\n\n    KittyInterface kittyContract;\n\n    modifier onlyOwnerOf(uint _zombieId) {\n        require(msg.sender == zombieToOwner[_zombieId]);\n        _;\n    }\n\n    function setKittyContractAddress(address _address) external onlyOwner {\n        kittyContract = KittyInterface(_address);\n    }\n\n    function _triggerCooldown(Zombie storage _zombie) internal {\n        _zombie.readyTime = uint32(now + cooldownTime);\n    }\n\n    function _isReady(Zombie storage _zombie) internal view returns (bool) {\n        return (_zombie.readyTime <= now);\n    }\n\n    function feedAndMultiply(uint _zombieId, uint _targetDna, string _species) internal onlyOwnerOf(_zombieId) {\n        Zombie storage myZombie = zombies[_zombieId];\n        require(_isReady(myZombie));\n        _targetDna = _targetDna % dnaModulus;\n        uint newDna = (myZombie.dna + _targetDna) / 2;\n        if (keccak256(_species) == keccak256(\"kitty\")) {\n            newDna = newDna - newDna % 100 + 99;\n        }\n        _createZombie(\"NoName\", newDna);\n        _triggerCooldown(myZombie);\n    }\n\n    function feedOnKitty(uint _zombieId, uint _kittyId) public {\n        uint kittyDna;\n        (,,,,,,,,, kittyDna) = kittyContract.getKitty(_kittyId);\n        feedAndMultiply(_zombieId, kittyDna, \"kitty\");\n    }\n}\n",
  "sourcePath": "/home/artem/projects/solidity/cryptozombies/contracts/zombieFeeding.sol",
  "compiler": {
    "name": "solc",
    "version": "0.4.22+commit.4cb486ee.Emscripten.clang"
  },
  "schemaVersion": "3.4.4",
  "updatedAt": "2021-12-29T15:13:52.121Z",
  "devdoc": {
    "methods": {
      "constructor()": {
        "details": "The Ownable constructor sets the original `owner` of the contract to the sender account."
      },
      "transferOwnership(address)": {
        "details": "Allows the current owner to transfer control of the contract to a newOwner.",
        "params": {
          "newOwner": "The address to transfer ownership to."
        }
      }
    }
  },
  "userdoc": {
    "methods": {}
  }
}